:020000040800F2
:10000000002000202D020008190200081B02000831
:1000100000000000000000000000000000000000E0
:100020000000000000000000000000001D020008A9
:1000300000000000000000001F020008210200086C
:100040007D0200087D0200087D0200087D02000894
:100050007D0200087D0200087D0200087D02000884
:100060007D0200087D0200087D0200087D02000874
:100070007D0200087D0200087D0200087D02000864
:100080007D0200087D020008000000007D020008DB
:100090007D020008B90100087D0200087D02000809
:1000A0007D0200087D0200087D0200087D02000834
:1000B0007D020008000000007D0200080000000032
:1000C00010B5064C2378002B07D1054B002B02D02E
:1000D000044800E000BF0123237010BD040000208D
:1000E00000000000C8020008044B10B5002B03D02C
:1000F0000349044800E000BF10BDC04600000000F6
:1001000008000020C802000810B50F4A516980237A
:10011000DB020B4353610D4B1A680D490A401A600C
:1001200018688022D2001043186058682024A04329
:100130005860986808409860986802439A60DA6846
:100140000A40DA609C6210BD0010024000040048C2
:10015000FFF3FFFF10B5114A916980239B020B4307
:1001600093610F4B07229A625C32DA621A690121AD
:100170008A431A61DA680A43DA600A4AC5208000B5
:1001800084461058084C204064461051802080035B
:1001900010601A680A431A6010BDC0460010024081
:1001A0000044014000E100E0FF00FFFF10B5FFF751
:1001B000ABFFFFF7CFFFFEE70E4B1B69DB0714D544
:1001C0000C4A136901218B4313610B4B1B781D2BC8
:1001D0000CD80A4A1F3191610133DBB2064A137011
:1001E000632B02D9130000221A707047034A2021A2
:1001F0009162F1E700440140200000200004004823
:10020000034A1168034B1B785B1813607047C046A4
:100210002400002000000020FEE7FEE77047704742
:1002200010B5FFF7EDFF10BD704700000D48854683
:10023000FFF7FAFF0C480D490D4A002302E0D4589D
:10024000C4500433C4188C42F9D30A4A0A4C002320
:1002500001E013600432A242FBD300F011F8FFF773
:10026000A5FFFEE700200020000000200400002081
:10027000E80200080400002028000020FEE700003B
:1002800070B500260C4C0D4D641BA410A64209D17C
:10029000002600F019F80A4C0A4D641BA410A6426F
:1002A00005D170BDB300EB5898470136EEE7B300B7
:1002B000EB5898470136F2E7E0020008E002000838
:1002C000E4020008E0020008F8B5C046F8BC08BC2B
:1002D0009E467047F8B5C046F8BC08BC9E467047BD
:0402E000E900000829
:0402E400C10000084D
:0402E8000100000011
:040000050800022DC0
:00000001FF
