:020000040800F2
:100000000020002029020008FD010008FF0100086F
:1000100000000000000000000000000000000000E0
:1000200000000000000000000000000001020008C5
:1000300000000000000000000302000805020008A4
:1000400079020008790200087902000879020008A4
:100050007902000879020008790200087902000894
:100060007902000879020008790200087902000884
:100070007902000879020008790200087902000874
:1000800079020008790200080000000079020008E7
:1000900079020008B5010008790200087902000819
:1000A0007902000879020008790200087902000844
:1000B000790200080000000079020008000000003A
:1000C00010B5064C2378002B07D1054B002B02D02E
:1000D000044800E000BF0123237010BD040000208D
:1000E00000000000C4020008044B10B5002B03D030
:1000F0000349044800E000BF10BDC04600000000F6
:1001000008000020C402000810B50F4A516980237E
:10011000DB020B4353610D4B1A680D490A401A600C
:100120001868802252001043186058681024A043B9
:100130005860986808409860986802439A60DA6846
:100140000A40DA609C6210BD0010024000040048C2
:10015000FFFCFFFF30B5104A916980239B020B43DF
:1001600093610E4B07229A625C32DA621A690121AE
:100170008A431A61DA680A43DA60094AC524A4008E
:100180001059084D284010518020800310601A68D3
:100190000A431A6030BDC0460010024000440140CE
:1001A00000E100E0FF00FFFF10B5FFF7ADFFFFF734
:1001B000D1FFFEE70E4B1B69DB0714D50C4A136910
:1001C00001218B4313610B4B1B781D2B0CD80A4A62
:1001D0000F3191610133DBB2064A1370632B02D9F0
:1001E000130000221A707047034A10219162F1E750
:1001F000004401402000002000040048FEE7FEE724
:100200007047704710B500F003F810BD704700004C
:10021000034A1168034B1B785B1813607047C04694
:1002200024000020000000200D488546FFF7EEFF67
:100230000C480D490D4A002302E0D458C450043341
:10024000C4188C42F9D30A4A0A4C002301E0136017
:100250000432A242FBD300F011F8FFF7A5FFFEE73E
:10026000002000200000002004000020E40200081C
:100270000400002028000020FEE7000070B50026E2
:100280000C4C0D4D641BA410A64209D1002600F0B1
:1002900019F80A4C0A4D641BA410A64205D170BD82
:1002A000B300EB5898470136EEE7B300EB58984798
:1002B0000136F2E7DC020008DC020008E002000878
:1002C000DC020008F8B5C046F8BC08BC9E46704782
:0C02D000F8B5C046F8BC08BC9E4670475C
:0402DC00E90000082D
:0402E000C100000851
:0402E4000100000015
:0400000508000229C4
:00000001FF
